******************************************************************************
                  TI ARM Linker PC v16.9.4                     
******************************************************************************
>> Linked Tue Dec 19 19:51:22 2017

OUTPUT FILE NAME:   <PAC2.out>
ENTRY POINT SYMBOL: "_c_int00"  address: 0000bb35


MEMORY CONFIGURATION

         name            origin    length      used     unused   attr    fill
----------------------  --------  ---------  --------  --------  ----  --------
  MAIN                  00000000   00040000  0000d5fe  00032a02  R  X
  INFO                  00200000   00004000  00000000  00004000  R  X
  SRAM_CODE             01000000   00010000  00000000  00010000  RW X
  SRAM_DATA             20000000   00010000  0000cd18  000032e8  RW  


SEGMENT ALLOCATION MAP

run origin  load origin   length   init length attrs members
----------  ----------- ---------- ----------- ----- -------
00000000    00000000    0000d608   0000d608    r-x
  00000000    00000000    00000144   00000144    r-- .intvecs
  00000144    00000144    0000bd8e   0000bd8e    r-x .text
  0000bed8    0000bed8    0000167c   0000167c    r-- .const
  0000d558    0000d558    000000b0   000000b0    r-- .cinit
20000000    20000000    0000cb1c   00000000    rw-
  20000000    20000000    000000e4   00000000    rw- .vtable
  200000e4    200000e4    0000c940   00000000    rw- .bss
  2000ca28    2000ca28    000000f4   00000000    rw- .data
2000fe00    2000fe00    00000200   00000000    rw-
  2000fe00    2000fe00    00000200   00000000    rw- .stack


SECTION ALLOCATION MAP

 output                                  attributes/
section   page    origin      length       input sections
--------  ----  ----------  ----------   ----------------
.intvecs   0    00000000    00000144     
                  00000000    00000144     msp432_startup_ccs.obj (.intvecs:retain)

.text      0    00000144    0000bd8e     
                  00000144    00001878     tasks.obj (.text)
                  000019bc    0000113e     rtsv7M4_T_le_v4SPD16_eabi.lib : _printfi.obj (.text)
                  00002afa    00000002                                   : mpu_init.obj (.text)
                  00002afc    00000d7c     cs.obj (.text)
                  00003878    00000ca4     queue.obj (.text)
                  0000451c    00000b4c     main.obj (.text)
                  00005068    000009ac     rtsv7M4_T_le_v4SPD16_eabi.lib : e_pow.obj (.text)
                  00005a14    000008e0     adc14.obj (.text)
                  000062f4    000008a4     spi.obj (.text)
                  00006b98    000007a8     i2c.obj (.text)
                  00007340    00000678     Crystalfontz128x128_ST7735.obj (.text)
                  000079b8    00000630     string.obj (.text)
                  00007fe8    000005b8     i2c_driver.obj (.text)
                  000085a0    00000490     line.obj (.text)
                  00008a30    00000480     gpio.obj (.text)
                  00008eb0    0000043c     tmp006.obj (.text)
                  000092ec    000003f0     interrupt.obj (.text)
                  000096dc    00000328     system_msp432p401r.obj (.text)
                  00009a04    000002e8     acelerometer_driver.obj (.text)
                  00009cec    00000288     port.obj (.text)
                  00009f74    00000266     context.obj (.text)
                  0000a1da    00000002     rtsv7M4_T_le_v4SPD16_eabi.lib : startup.obj (.text)
                  0000a1dc    00000244     sysctl.obj (.text)
                  0000a420    000001fc     rtsv7M4_T_le_v4SPD16_eabi.lib : s_exp2.obj (.text)
                  0000a61c    000001f4                                   : ull_div_t2.obj (.text)
                  0000a810    000001cc     heap_2.obj (.text)
                  0000a9dc    000001b6     rtsv7M4_T_le_v4SPD16_eabi.lib : fd_add_t2.obj (.text)
                  0000ab92    00000002     --HOLE-- [fill = 0]
                  0000ab94    00000178     adc14_multiple_channel_no_repeat.obj (.text)
                  0000ad0c    00000170     rtsv7M4_T_le_v4SPD16_eabi.lib : e_sqrt.obj (.text)
                  0000ae7c    0000016c     opt3001.obj (.text)
                  0000afe8    00000136     rtsv7M4_T_le_v4SPD16_eabi.lib : fd_div_t2.obj (.text)
                  0000b11e    00000134     display.obj (.text)
                  0000b252    0000012a     list.obj (.text)
                  0000b37c    000000fc     rtsv7M4_T_le_v4SPD16_eabi.lib : fd_mul_t2.obj (.text)
                  0000b478    000000fc                                   : s_scalbn.obj (.text)
                  0000b574    000000d2     portasm.obj (.text)
                  0000b646    00000002     --HOLE-- [fill = 0]
                  0000b648    000000bc     HAL_MSP_EXP432P401R_Crystalfontz128x128_ST7735.obj (.text)
                  0000b704    0000009c     rtsv7M4_T_le_v4SPD16_eabi.lib : memcpy_t2.obj (.text)
                  0000b7a0    00000086                                   : fd_cmp_t2.obj (.text:__aeabi_cdcmple)
                  0000b826    00000086                                   : fd_cmp_t2.obj (.text:__aeabi_cdrcmple)
                  0000b8ac    0000007a                                   : memset_t2.obj (.text)
                  0000b926    00000002     --HOLE-- [fill = 0]
                  0000b928    00000070                                   : autoinit.obj (.text)
                  0000b998    0000006e                                   : fd_tos_t2.obj (.text)
                  0000ba06    00000068                                   : copy_decompress_lzss.obj (.text:decompress:lzss)
                  0000ba6e    00000002     --HOLE-- [fill = 0]
                  0000ba70    00000064                                   : s_frexp.obj (.text)
                  0000bad4    00000060                                   : sprintf.obj (.text)
                  0000bb34    00000054                                   : boot.obj (.text)
                  0000bb88    00000054                                   : exit.obj (.text)
                  0000bbdc    00000054                                   : ltoa.obj (.text)
                  0000bc30    0000004c                                   : atoi.obj (.text)
                  0000bc7c    0000004c                                   : cpy_tbl.obj (.text)
                  0000bcc8    00000048                                   : fd_toi_t2.obj (.text)
                  0000bd10    0000003e     cpu.obj (.text)
                  0000bd4e    00000038     rtsv7M4_T_le_v4SPD16_eabi.lib : fs_tod_t2.obj (.text)
                  0000bd86    00000036                                   : strncpy.obj (.text)
                  0000bdbc    0000002e                                   : i_tofd_t2.obj (.text)
                  0000bdea    00000002     --HOLE-- [fill = 0]
                  0000bdec    00000020     msp432_startup_ccs.obj (.text)
                  0000be0c    00000020     rtsv7M4_T_le_v4SPD16_eabi.lib : u_tofd_t2.obj (.text)
                  0000be2c    0000001c                                   : memccpy.obj (.text)
                  0000be48    00000018                                   : args_main.obj (.text)
                  0000be60    00000016                                   : strchr.obj (.text)
                  0000be76    00000002     --HOLE-- [fill = 0]
                  0000be78    00000014                                   : _lock.obj (.text)
                  0000be8c    00000014                                   : s_copysign.obj (.text)
                  0000bea0    00000014                                   : strlen.obj (.text)
                  0000beb4    0000000e                                   : copy_decompress_none.obj (.text:decompress:none)
                  0000bec2    0000000c                                   : copy_zero_init.obj (.text:decompress:ZI)
                  0000bece    00000004                                   : pre_init.obj (.text)

.const     0    0000bed8    0000167c     
                  0000bed8    00001000     rtsv7M4_T_le_v4SPD16_eabi.lib : s_exp2.obj (.const:tbl)
                  0000ced8    000002f8     fontfixed6x8.obj (.const:.string:g_pucFontFixed6x8Data)
                  0000d1d0    00000101     rtsv7M4_T_le_v4SPD16_eabi.lib : ctype.obj (.const:.string:_ctypes_)
                  0000d2d1    00000001     --HOLE-- [fill = 0]
                  0000d2d2    00000002     heap_2.obj (.const)
                  0000d2d4    000000c8     fontfixed6x8.obj (.const:g_sFontFixed6x8)
                  0000d39c    00000080     adc14.obj (.const:_ctlRegs)
                  0000d41c    00000050     interrupt.obj (.const:g_pulRegs)
                  0000d46c    00000004     --HOLE-- [fill = 0]
                  0000d470    00000030     rtsv7M4_T_le_v4SPD16_eabi.lib : e_pow.obj (.const:$O1$$)
                  0000d4a0    0000002c     Crystalfontz128x128_ST7735.obj (.const:g_sCrystalfontz128x128)
                  0000d4cc    00000020     interrupt.obj (.const:g_pulPriority)
                  0000d4ec    0000001c     HAL_MSP_EXP432P401R_Crystalfontz128x128_ST7735.obj (.const:$P$T0$1)
                  0000d508    0000001c     gpio.obj (.const:GPIO_PORT_TO_INT)
                  0000d524    00000008     Crystalfontz128x128_ST7735.obj (.const:$P$T0$1)
                  0000d52c    00000008     interrupt.obj (.const:g_pulDisRegs)
                  0000d534    00000008     interrupt.obj (.const:g_pulEnRegs)
                  0000d53c    00000008     interrupt.obj (.const:g_pulPendRegs)
                  0000d544    00000008     interrupt.obj (.const:g_pulUnpendRegs)
                  0000d54c    00000008     port.obj (.const)

.cinit     0    0000d558    000000b0     
                  0000d558    00000075     (.cinit..data.load) [load image, compression = lzss]
                  0000d5cd    00000003     --HOLE-- [fill = 0]
                  0000d5d0    0000000c     (__TI_handler_table)
                  0000d5dc    00000004     --HOLE-- [fill = 0]
                  0000d5e0    00000008     (.cinit..bss.load) [load image, compression = zero_init]
                  0000d5e8    00000008     (.cinit..vtable.load) [load image, compression = zero_init]
                  0000d5f0    00000018     (__TI_cinit_table)

.vtable    0    20000000    000000e4     UNINITIALIZED
                  20000000    000000e4     interrupt.obj (.vtable)

.bss       0    200000e4    0000c940     UNINITIALIZED
                  200000e4    0000c800     heap_2.obj (.bss:ucHeap)
                  2000c8e4    00000064     tasks.obj (.bss:pxReadyTasksLists)
                  2000c948    0000001c     (.common:g_sContext)
                  2000c964    00000014     tasks.obj (.bss:xDelayedTaskList1)
                  2000c978    00000014     tasks.obj (.bss:xDelayedTaskList2)
                  2000c98c    00000014     tasks.obj (.bss:xPendingReadyList)
                  2000c9a0    00000014     tasks.obj (.bss:xSuspendedTaskList)
                  2000c9b4    00000008     cs.obj (.bss)
                  2000c9bc    00000008     tasks.obj (.bss)
                  2000c9c4    00000008     heap_2.obj (.bss:xEnd)
                  2000c9cc    00000008     heap_2.obj (.bss:xStart)
                  2000c9d4    00000008     (.common:resultsBuffer)
                  2000c9dc    00000004     adc14_multiple_channel_no_repeat.obj (.bss)
                  2000c9e0    00000004     (.common:Cola_Acele)
                  2000c9e4    00000004     (.common:Cola_Medias)
                  2000c9e8    00000004     (.common:Cola_TempLuz)
                  2000c9ec    00000004     (.common:Mediaaccx)
                  2000c9f0    00000004     (.common:Mediaaccy)
                  2000c9f4    00000004     (.common:Mediaaccz)
                  2000c9f8    00000004     (.common:g_ui32ByteCount)
                  2000c9fc    00000004     (.common:pData)
                  2000ca00    00000004     (.common:xBinarySemaphore)
                  2000ca04    00000004     (.common:xMutexColaTempLuz)
                  2000ca08    00000004     (.common:xMutexTemperatura)
                  2000ca0c    00000004     (.common:xSemaphoreacc)
                  2000ca10    00000004     (.common:xSemaphoreluz)
                  2000ca14    00000004     (.common:xSemaphoretemp)
                  2000ca18    00000002     (.common:Lcd_ScreenHeigth)
                  2000ca1a    00000002     (.common:Lcd_ScreenWidth)
                  2000ca1c    00000002     (.common:Lcd_TouchTrim)
                  2000ca1e    00000001     (.common:Lcd_FlagRead)
                  2000ca1f    00000001     (.common:Lcd_FontSolid)
                  2000ca20    00000001     (.common:Lcd_Orientation)
                  2000ca21    00000001     (.common:Lcd_PenSolid)
                  2000ca22    00000001     (.common:ui8DummyRead)
                  2000ca23    00000001     (.common:ui8Status)

.data      0    2000ca28    000000f4     UNINITIALIZED
                  2000ca28    00000030     gpio.obj (.data:GPIO_PORT_TO_BASE)
                  2000ca58    00000030     tasks.obj (.data)
                  2000ca88    0000001c     main.obj (.data)
                  2000caa4    00000014     i2c_driver.obj (.data:i2cConfig)
                  2000cab8    0000000d     main.obj (.data:aux)
                  2000cac5    0000000d     main.obj (.data:rotulo1)
                  2000cad2    0000000d     main.obj (.data:rotulo2)
                  2000cadf    00000001     i2c_driver.obj (.data)
                  2000cae0    0000000c     rtsv7M4_T_le_v4SPD16_eabi.lib : exit.obj (.data:$O1$$)
                  2000caec    0000000c     port.obj (.data)
                  2000caf8    00000008     rtsv7M4_T_le_v4SPD16_eabi.lib : _lock.obj (.data:$O1$$)
                  2000cb00    00000008     heap_2.obj (.data)
                  2000cb08    00000008     tmp006.obj (.data)
                  2000cb10    00000004     rtsv7M4_T_le_v4SPD16_eabi.lib : errno.obj (.data)
                  2000cb14    00000004                                   : stkdepth_vars.obj (.data)
                  2000cb18    00000004     system_msp432p401r.obj (.data)

.stack     0    2000fe00    00000200     UNINITIALIZED
                  2000fe00    00000200     --HOLE--

MODULE SUMMARY

       Module                                               code    ro data   rw data
       ------                                               ----    -------   -------
    .\
       main.obj                                             2892    0         143    
       i2c_driver.obj                                       1464    0         31     
       system_msp432p401r.obj                               808     0         4      
       acelerometer_driver.obj                              744     0         0      
       adc14_multiple_channel_no_repeat.obj                 376     0         12     
       msp432_startup_ccs.obj                               32      324       0      
    +--+----------------------------------------------------+-------+---------+---------+
       Total:                                               6316    324       190    
                                                                                     
    .\GrLib\fonts\
       fontfixed6x8.obj                                     0       960       0      
    +--+----------------------------------------------------+-------+---------+---------+
       Total:                                               0       960       0      
                                                                                     
    .\GrLib\grlib\
       string.obj                                           1584    0         0      
       line.obj                                             1168    0         0      
       context.obj                                          614     0         0      
       display.obj                                          308     0         0      
    +--+----------------------------------------------------+-------+---------+---------+
       Total:                                               3674    0         0      
                                                                                     
    .\LcdDriver\
       Crystalfontz128x128_ST7735.obj                       1656    52        10     
       HAL_MSP_EXP432P401R_Crystalfontz128x128_ST7735.obj   188     28        0      
    +--+----------------------------------------------------+-------+---------+---------+
       Total:                                               1844    80        10     
                                                                                     
    .\driverlib\MSP432P4xx\
       cs.obj                                               3452    0         8      
       adc14.obj                                            2272    128       0      
       spi.obj                                              2212    0         0      
       i2c.obj                                              1960    0         0      
       interrupt.obj                                        1008    144       228    
       gpio.obj                                             1152    28        48     
       sysctl.obj                                           580     0         0      
       cpu.obj                                              62      0         0      
    +--+----------------------------------------------------+-------+---------+---------+
       Total:                                               12698   300       284    
                                                                                     
    .\freertos\cortex-m4\
       port.obj                                             648     8         12     
       portasm.obj                                          210     0         0      
    +--+----------------------------------------------------+-------+---------+---------+
       Total:                                               858     8         12     
                                                                                     
    .\freertos\src\
       heap_2.obj                                           460     2         51224  
       tasks.obj                                            6264    0         236    
       queue.obj                                            3236    0         0      
       list.obj                                             298     0         0      
    +--+----------------------------------------------------+-------+---------+---------+
       Total:                                               10258   2         51460  
                                                                                     
    .\sensors\
       tmp006.obj                                           1084    0         8      
       opt3001.obj                                          364     0         0      
    +--+----------------------------------------------------+-------+---------+---------+
       Total:                                               1448    0         8      
                                                                                     
    C:\ti\ccsv7\tools\compiler\ti-cgt-arm_16.9.4.LTS\lib\rtsv7M4_T_le_v4SPD16_eabi.lib
       s_exp2.obj                                           508     4096      0      
       _printfi.obj                                         4414    0         0      
       e_pow.obj                                            2476    48        0      
       ull_div_t2.obj                                       500     0         0      
       fd_add_t2.obj                                        438     0         0      
       e_sqrt.obj                                           368     0         0      
       fd_div_t2.obj                                        310     0         0      
       fd_cmp_t2.obj                                        268     0         0      
       ctype.obj                                            0       257       0      
       fd_mul_t2.obj                                        252     0         0      
       s_scalbn.obj                                         252     0         0      
       memcpy_t2.obj                                        156     0         0      
       memset_t2.obj                                        122     0         0      
       autoinit.obj                                         112     0         0      
       fd_tos_t2.obj                                        110     0         0      
       copy_decompress_lzss.obj                             104     0         0      
       s_frexp.obj                                          100     0         0      
       exit.obj                                             84      0         12     
       sprintf.obj                                          96      0         0      
       boot.obj                                             84      0         0      
       ltoa.obj                                             84      0         0      
       atoi.obj                                             76      0         0      
       cpy_tbl.obj                                          76      0         0      
       fd_toi_t2.obj                                        72      0         0      
       fs_tod_t2.obj                                        56      0         0      
       strncpy.obj                                          54      0         0      
       i_tofd_t2.obj                                        46      0         0      
       u_tofd_t2.obj                                        32      0         0      
       _lock.obj                                            20      0         8      
       memccpy.obj                                          28      0         0      
       args_main.obj                                        24      0         0      
       strchr.obj                                           22      0         0      
       s_copysign.obj                                       20      0         0      
       strlen.obj                                           20      0         0      
       copy_decompress_none.obj                             14      0         0      
       copy_zero_init.obj                                   12      0         0      
       errno.obj                                            0       0         4      
       pre_init.obj                                         4       0         0      
       stkdepth_vars.obj                                    0       0         4      
       mpu_init.obj                                         2       0         0      
       startup.obj                                          2       0         0      
    +--+----------------------------------------------------+-------+---------+---------+
       Total:                                               11418   4401      28     
                                                                                     
       Stack:                                               0       0         512    
       Linker Generated:                                    0       169       0      
    +--+----------------------------------------------------+-------+---------+---------+
       Grand Total:                                         48514   6244      52504  


LINKER GENERATED COPY TABLES

__TI_cinit_table @ 0000d5f0 records: 3, size/record: 8, table size: 24
	.data: load addr=0000d558, load size=00000075 bytes, run addr=2000ca28, run size=000000f4 bytes, compression=lzss
	.bss: load addr=0000d5e0, load size=00000008 bytes, run addr=200000e4, run size=0000c940 bytes, compression=zero_init
	.vtable: load addr=0000d5e8, load size=00000008 bytes, run addr=20000000, run size=000000e4 bytes, compression=zero_init


LINKER GENERATED HANDLER TABLE

__TI_handler_table @ 0000d5d0 records: 3, size/record: 4, table size: 12
	index: 0, handler: __TI_zero_init
	index: 1, handler: __TI_decompress_lzss
	index: 2, handler: __TI_decompress_none


GLOBAL SYMBOLS: SORTED ALPHABETICALLY BY Name 

address   name                                       
-------   ----                                       
0000ac93  ADC14_IRQHandler                           
00006269  ADC14_clearInterruptFlag                   
00005e09  ADC14_configureConversionMemory            
00005cb1  ADC14_configureMultiSequenceMode           
00005d47  ADC14_configureSingleSampleMode            
00005f41  ADC14_disableComparatorWindow              
00005ddf  ADC14_disableConversion                    
000061e3  ADC14_disableInterrupt                     
00005b85  ADC14_disableModule                        
0000615f  ADC14_disableReferenceBurst                
00005bc5  ADC14_disableSampleTimer                   
00005eb1  ADC14_enableComparatorWindow               
00005d9d  ADC14_enableConversion                     
000061b7  ADC14_enableInterrupt                      
00005b7d  ADC14_enableModule                         
00006149  ADC14_enableReferenceBurst                 
00005b9b  ADC14_enableSampleTimer                    
00006239  ADC14_getEnabledInterruptStatus            
0000620f  ADC14_getInterruptStatus                   
00006069  ADC14_getMultiSequenceResult               
00005c3b  ADC14_getResolution                        
0000604f  ADC14_getResult                            
000060d5  ADC14_getResultArray                       
00005bdb  ADC14_initModule                           
00005deb  ADC14_isBusy                               
00006299  ADC14_registerInterrupt                    
00005f9f  ADC14_setComparatorWindowValue             
00006175  ADC14_setPowerMode                         
00005c21  ADC14_setResolution                        
00006025  ADC14_setResultFormat                      
00005c87  ADC14_setSampleHoldTime                    
00005c45  ADC14_setSampleHoldTrigger                 
00005dbd  ADC14_toggleConversionTrigger              
000062ad  ADC14_unregisterInterrupt                  
0000ac6d  ADC_read                                   
00009a0d  Accel_read                                 
0000bb89  C$$EXIT                                    
0000bd45  CPU_basepriGet                             
0000bd37  CPU_basepriSet                             
0000bd11  CPU_cpsid                                  
0000bd27  CPU_cpsie                                  
0000bd1d  CPU_primask                                
0000bd33  CPU_wfi                                    
000037fd  CS_clearInterruptFlag                      
000030a5  CS_disableClockRequest                     
0000318b  CS_disableDCOExternalResistor              
000036d1  CS_disableFaultCounter                     
000037bb  CS_disableInterrupt                        
0000307d  CS_enableClockRequest                      
000030ed  CS_enableDCOExternalResistor               
000036a5  CS_enableFaultCounter                      
00003799  CS_enableInterrupt                         
0000363d  CS_getACLK                                 
000035fd  CS_getBCLK                                 
00003285  CS_getDCOFrequency                         
000037e3  CS_getEnabledInterruptStatus               
00003619  CS_getHSMCLK                               
000037dd  CS_getInterruptStatus                      
00003683  CS_getMCLK                                 
00003661  CS_getSMCLK                                
00002d9d  CS_initClockSignal                         
0000381f  CS_registerInterrupt                       
000036fd  CS_resetFaultCounter                       
000031a9  CS_setDCOCenteredFrequency                 
00003115  CS_setDCOExternalResistorCalibration       
00003425  CS_setDCOFrequency                         
00002d61  CS_setExternalClockSourceFrequency         
000030c7  CS_setReferenceOscillatorFrequency         
00003749  CS_startFaultCounter                       
00002ea1  CS_startHFXT                               
00002ec5  CS_startHFXTWithTimeout                    
00002f89  CS_startLFXT                               
00002fad  CS_startLFXTWithTimeout                    
000031e1  CS_tuneDCOFrequency                        
00003833  CS_unregisterInterrupt                     
2000c9e0  Cola_Acele                                 
2000c9e4  Cola_Medias                                
2000c9e8  Cola_TempLuz                               
00007341  Crystalfontz128x128_Init                   
00007455  Crystalfontz128x128_SetDrawFrame           
00007583  Crystalfontz128x128_SetOrientation         
2000ca94  DifTemp2Temp1                              
000084b1  EUSCIB1_IRQHandler                         
00006a63  EUSCI_A_SPI_changeClockPhasePolarity       
00006b17  EUSCI_A_SPI_clearInterruptFlag             
00006b47  EUSCI_A_SPI_disable                        
00006ae5  EUSCI_A_SPI_disableInterrupt               
00006b31  EUSCI_A_SPI_enable                         
00006acb  EUSCI_A_SPI_enableInterrupt                
00006aff  EUSCI_A_SPI_getInterruptStatus             
00006b5d  EUSCI_A_SPI_getReceiveBufferAddressForDMA  
00006b6b  EUSCI_A_SPI_getTransmitBufferAddressForDMA 
00006b79  EUSCI_A_SPI_isBusy                         
000069e3  EUSCI_A_SPI_masterChangeClock              
00006abb  EUSCI_A_SPI_receiveData                    
000069c3  EUSCI_A_SPI_select4PinFunctionality        
00006a19  EUSCI_A_SPI_slaveInit                      
00006aa5  EUSCI_A_SPI_transmitData                   
00006895  EUSCI_B_SPI_changeClockPhasePolarity       
00006949  EUSCI_B_SPI_clearInterruptFlag             
00006979  EUSCI_B_SPI_disable                        
00006917  EUSCI_B_SPI_disableInterrupt               
00006963  EUSCI_B_SPI_enable                         
000068fd  EUSCI_B_SPI_enableInterrupt                
00006931  EUSCI_B_SPI_getInterruptStatus             
0000698f  EUSCI_B_SPI_getReceiveBufferAddressForDMA  
0000699d  EUSCI_B_SPI_getTransmitBufferAddressForDMA 
000069ab  EUSCI_B_SPI_isBusy                         
00006819  EUSCI_B_SPI_masterChangeClock              
000068ed  EUSCI_B_SPI_receiveData                    
000067f9  EUSCI_B_SPI_select4PinFunctionality        
0000684b  EUSCI_B_SPI_slaveInit                      
000068d7  EUSCI_B_SPI_transmitData                   
00008d53  GPIO_clearInterruptFlag                    
00008d13  GPIO_disableInterrupt                      
00008cf1  GPIO_enableInterrupt                       
00008dab  GPIO_getEnabledInterruptStatus             
00008cc3  GPIO_getInputPinValue                      
00008d35  GPIO_getInterruptStatus                    
00008d75  GPIO_interruptEdgeSelect                   
00008e6b  GPIO_registerInterrupt                     
00008a6b  GPIO_setAsInputPin                         
00008c1f  GPIO_setAsInputPinWithPullDownResistor     
00008c71  GPIO_setAsInputPinWithPullUpResistor       
00008a31  GPIO_setAsOutputPin                        
00008b35  GPIO_setAsPeripheralModuleFunctionInputPin 
00008ab1  GPIO_setAsPeripheralModuleFunctionOutputPin
00008e27  GPIO_setDriveStrengthHigh                  
00008e49  GPIO_setDriveStrengthLow                   
00008bb9  GPIO_setOutputHighOnPin                    
00008bdb  GPIO_setOutputLowOnPin                     
00008bfd  GPIO_toggleOutputOnPin                     
00008e8b  GPIO_unregisterInterrupt                   
0000a161  Graphics_clearDisplay                      
0000b23b  Graphics_clearDisplayOnDisplay             
0000b18d  Graphics_drawHorizontalLineOnDisplay       
000088bd  Graphics_drawLine                          
000085a1  Graphics_drawLineH                         
0000863d  Graphics_drawLineV                         
0000b149  Graphics_drawMultiplePixelsOnDisplay       
0000a173  Graphics_drawPixel                         
0000b11f  Graphics_drawPixelOnDisplay                
00007af3  Graphics_drawString                        
00007f81  Graphics_drawStringCentered                
0000b1c1  Graphics_drawVerticalLineOnDisplay         
0000b1f5  Graphics_fillRectangleOnDisplay            
0000a153  Graphics_flushBuffer                       
0000b229  Graphics_flushOnDisplay                    
0000a135  Graphics_getDisplayHeight                  
0000a125  Graphics_getDisplayWidth                   
0000a0d3  Graphics_getFontBaseline                   
0000a109  Graphics_getFontHeight                     
0000a117  Graphics_getFontMaxWidth                   
0000a145  Graphics_getHeightOfDisplay                
00007f71  Graphics_getStringBaseline                 
00007fc9  Graphics_getStringHeight                   
00007fd9  Graphics_getStringMaxWidth                 
000079f9  Graphics_getStringWidth                    
0000a1cd  Graphics_getWidthOfDisplay                 
00009f75  Graphics_initContext                       
0000a089  Graphics_setBackgroundColor                
0000a0a3  Graphics_setBackgroundColorTranslated      
00009fbf  Graphics_setClipRegion                     
0000a0b9  Graphics_setFont                           
0000a0e1  Graphics_setForegroundColor                
0000a0f7  Graphics_setForegroundColorTranslated      
0000b213  Graphics_translateColorOnDisplay           
0000b649  HAL_LCD_PortInit                           
0000b679  HAL_LCD_SpiInit                            
0000b6af  HAL_LCD_writeCommand                       
0000b6d7  HAL_LCD_writeData                          
000071f9  I2C_clearInterruptFlag                     
000071e3  I2C_disableInterrupt                       
00006c4b  I2C_disableModule                          
000071ad  I2C_disableMultiMasterMode                 
000071cd  I2C_enableInterrupt                        
00006c35  I2C_enableModule                           
0000718d  I2C_enableMultiMasterMode                  
00007227  I2C_getEnabledInterruptStatus              
0000720f  I2C_getInterruptStatus                     
00007237  I2C_getMode                                
00007133  I2C_getReceiveBufferAddressForDMA          
00007141  I2C_getTransmitBufferAddressForDMA         
00007fe9  I2C_init                                   
00006b99  I2C_initMaster                             
00006bfb  I2C_initSlave                              
00006cef  I2C_isBusBusy                              
00007161  I2C_masterIsStartSent                      
0000714f  I2C_masterIsStopSent                       
00007059  I2C_masterReceiveMultiByteFinish           
00007097  I2C_masterReceiveMultiByteFinishWithTimeout
00007041  I2C_masterReceiveMultiByteNext             
000070f5  I2C_masterReceiveMultiByteStop             
00007109  I2C_masterReceiveSingle                    
00006c91  I2C_masterReceiveSingleByte                
00007027  I2C_masterReceiveStart                     
00006f07  I2C_masterSendMultiByteFinish              
00006f55  I2C_masterSendMultiByteFinishWithTimeout   
00006e9d  I2C_masterSendMultiByteNext                
00006ec9  I2C_masterSendMultiByteNextWithTimeout     
00006df3  I2C_masterSendMultiByteStart               
00006e41  I2C_masterSendMultiByteStartWithTimeout    
00006fc1  I2C_masterSendMultiByteStop                
00006feb  I2C_masterSendMultiByteStopWithTimeout     
00006d01  I2C_masterSendSingleByte                   
00006d67  I2C_masterSendSingleByteWithTimeout        
00007179  I2C_masterSendStart                        
000080d7  I2C_read                                   
000083dd  I2C_read16                                 
000081f3  I2C_readBurst                              
0000724d  I2C_registerInterrupt                      
00006c75  I2C_setMode                                
00006c61  I2C_setSlaveAddress                        
00006cdb  I2C_slaveGetData                           
00006cc5  I2C_slavePutData                           
0000730f  I2C_slaveSendNAK                           
000072b3  I2C_unregisterInterrupt                    
00008005  I2C_write                                  
00008329  I2C_write16                                
000094af  Interrupt_disableInterrupt                 
000092ff  Interrupt_disableMaster                    
000096ad  Interrupt_disableSleepOnIsrExit            
0000943d  Interrupt_enableInterrupt                  
000092ef  Interrupt_enableMaster                     
0000969b  Interrupt_enableSleepOnIsrExit             
00009417  Interrupt_getPriority                      
0000938f  Interrupt_getPriorityGrouping              
0000967b  Interrupt_getPriorityMask                  
00009695  Interrupt_getVectorTableAddress            
00009521  Interrupt_isEnabled                        
000095ad  Interrupt_pendInterrupt                    
0000930f  Interrupt_registerInterrupt                
000093c7  Interrupt_setPriority                      
00009375  Interrupt_setPriorityGrouping              
0000966b  Interrupt_setPriorityMask                  
00009685  Interrupt_setVectorTableAddress            
0000961d  Interrupt_unpendInterrupt                  
00009361  Interrupt_unregisterInterrupt              
2000ca1e  Lcd_FlagRead                               
2000ca1f  Lcd_FontSolid                              
2000ca20  Lcd_Orientation                            
2000ca21  Lcd_PenSolid                               
2000ca18  Lcd_ScreenHeigth                           
2000ca1a  Lcd_ScreenWidth                            
2000ca1c  Lcd_TouchTrim                              
2000ca88  MediaLuz                                   
2000ca8c  MediaTemp1m                                
2000ca90  MediaTemp2m                                
2000c9ec  Mediaaccx                                  
2000c9f0  Mediaaccy                                  
2000c9f4  Mediaaccz                                  
UNDEFED   SHT$$INIT_ARRAY$$Base                      
UNDEFED   SHT$$INIT_ARRAY$$Limit                     
000064b7  SPI_changeClockPhasePolarity               
00006411  SPI_changeMasterClock                      
00006669  SPI_clearInterruptFlag                     
000065eb  SPI_disableInterrupt                       
00006545  SPI_disableModule                          
000065c5  SPI_enableInterrupt                        
00006529  SPI_enableModule                           
00006639  SPI_getEnabledInterruptStatus              
00006611  SPI_getInterruptStatus                     
00006561  SPI_getReceiveBufferAddressForDMA          
0000657d  SPI_getTransmitBufferAddressForDMA         
00006325  SPI_initMaster                             
00006439  SPI_initSlave                              
000065a9  SPI_isBusy                                 
0000650d  SPI_receiveData                            
0000668f  SPI_registerInterrupt                      
000063eb  SPI_selectFourPinFunctionality             
000064e7  SPI_transmitData                           
0000674d  SPI_unregisterInterrupt                    
0000a3cf  SysCtl_disableGlitchFilter                 
0000a25f  SysCtl_disableNMISource                    
0000a367  SysCtl_disablePeripheralAtCPUHalt          
0000a2a9  SysCtl_disableSRAMBank                     
0000a32d  SysCtl_disableSRAMBankRetention            
0000a3c3  SysCtl_enableGlitchFilter                  
0000a273  SysCtl_enableNMISource                     
0000a353  SysCtl_enablePeripheralAtCPUHalt           
0000a28d  SysCtl_enableSRAMBank                      
0000a311  SysCtl_enableSRAMBankRetention             
0000a259  SysCtl_getFlashSize                        
0000a287  SysCtl_getNMISourceStatus                  
0000a253  SysCtl_getSRAMSize                         
0000a1dd  SysCtl_getTLVInfo                          
0000a3db  SysCtl_getTempCalibrationConstant          
0000a349  SysCtl_rebootDevice                        
0000a39f  SysCtl_setWDTPasswordViolationResetType    
0000a37b  SysCtl_setWDTTimeoutResetType              
2000cb18  SystemCoreClock                            
000096dd  SystemCoreClockUpdate                      
00009951  SystemInit                                 
00008eb1  TMP006_init                                
00008ef5  TMP006_readAmbientTemperature              
00008f1d  TMP006_readObjectTemperature               
2000caa0  TemperaturaG                               
4000480c  WDTCTL_SYM                                 
20010000  __STACK_END                                
00000200  __STACK_SIZE                               
0000d5f0  __TI_CINIT_Base                            
0000d608  __TI_CINIT_Limit                           
0000d5d0  __TI_Handler_Table_Base                    
0000d5dc  __TI_Handler_Table_Limit                   
0000b929  __TI_auto_init                             
2000cae0  __TI_cleanup_ptr                           
0000ba07  __TI_decompress_lzss                       
0000beb5  __TI_decompress_none                       
2000cae4  __TI_dtors_ptr                             
2000cae8  __TI_enable_exit_profile_output            
ffffffff  __TI_pprof_out_hndl                        
00002201  __TI_printfi                               
ffffffff  __TI_prof_data_size                        
ffffffff  __TI_prof_data_start                       
00000000  __TI_static_base__                         
0000bec3  __TI_zero_init                             
0000b7a1  __aeabi_cdcmpeq                            
0000b7a1  __aeabi_cdcmple                            
0000b827  __aeabi_cdrcmple                           
0000b999  __aeabi_d2f                                
0000bcc9  __aeabi_d2iz                               
0000a9e7  __aeabi_dadd                               
0000afe9  __aeabi_ddiv                               
0000b37d  __aeabi_dmul                               
0000a9dd  __aeabi_dsub                               
0000bd4f  __aeabi_f2d                                
0000bdbd  __aeabi_i2d                                
0000b8ad  __aeabi_memclr                             
0000b8ad  __aeabi_memclr4                            
0000b8ad  __aeabi_memclr8                            
0000b705  __aeabi_memcpy                             
0000b705  __aeabi_memcpy4                            
0000b705  __aeabi_memcpy8                            
0000b8af  __aeabi_memset                             
0000b8af  __aeabi_memset4                            
0000b8af  __aeabi_memset8                            
0000be0d  __aeabi_ui2d                               
0000a61d  __aeabi_uldivmod                           
ffffffff  __binit__                                  
ffffffff  __c_args__                                 
00002afb  __mpu_init                                 
2000fe00  __stack                                    
0000be49  _args_main                                 
0000bb35  _c_int00                                   
0000d1d0  _ctypes_                                   
2000caf8  _lock                                      
0000be87  _nop                                       
0000be7f  _register_lock                             
0000be79  _register_unlock                           
0000a1db  _system_post_cinit                         
0000becf  _system_pre_init                           
2000cafc  _unlock                                    
0000bb8d  abort                                      
0000bc31  atoi                                       
2000cab8  aux                                        
ffffffff  binit                                      
2000cadf  burstMode                                  
0000bc7d  copy_in                                    
0000be8d  copysign                                   
0000be8d  copysignl                                  
00000489  eTaskGetState                              
2000cb10  errno                                      
0000bb95  exit                                       
0000a421  exp2                                       
0000a421  exp2l                                      
0000ba71  frexp                                      
0000ba71  frexpl                                     
20000000  g_pfnRAMVectors                            
2000c948  g_sContext                                 
0000d4a0  g_sCrystalfontz128x128                     
0000d2d4  g_sFontFixed6x8                            
2000c9f8  g_ui32ByteCount                            
0000ab95  init_ADC                                   
00009a05  init_Accel                                 
00000000  interruptVectors                           
0000b479  ldexp                                      
0000b479  ldexpl                                     
0000bbdd  ltoa                                       
0000451d  main                                       
2000cb14  main_func_sp                               
0000be2d  memccpy                                    
0000b705  memcpy                                     
0000b8b5  memset                                     
2000c9fc  pData                                      
00000a55  pcTaskGetName                              
00005069  pow                                        
00005069  powl                                       
0000a811  pvPortMalloc                               
00001439  pvTaskIncrementMutexHeldCount              
2000ca58  pxCurrentTCB                               
00009ced  pxPortInitialiseStack                      
2000c9d4  resultsBuffer                              
2000cac5  rotulo1                                    
2000cad2  rotulo2                                    
0000b479  scalbn                                     
0000b479  scalbnl                                    
0000af7b  sensorOpt3001Convert                       
0000ae89  sensorOpt3001Enable                        
0000ae7d  sensorOpt3001Init                          
0000aeb5  sensorOpt3001Read                          
0000af19  sensorOpt3001Test                          
0000bad5  sprintf                                    
0000ad0d  sqrt                                       
0000ad0d  sqrtl                                      
0000be61  strchr                                     
0000bea1  strlen                                     
0000bd87  strncpy                                    
2000ca98  sumatm1                                    
2000ca9c  sumatm2                                    
000042bd  ucQueueGetQueueType                        
2000ca22  ui8DummyRead                               
2000ca23  ui8Status                                  
0000d54c  ulMaxSyscallInterruptPriority              
0000b585  ulPortGetIPSR                              
00001451  ulTaskNotifyTake                           
0000b335  uxListRemove                               
0000429d  uxQueueGetQueueNumber                      
000041f5  uxQueueMessagesWaiting                     
00004253  uxQueueMessagesWaitingFromISR              
0000421f  uxQueueSpacesAvailable                     
00000a4b  uxTaskGetNumberOfTasks                     
00000a99  uxTaskGetSystemState                       
00000fed  uxTaskGetTaskNumber                        
00000511  uxTaskPriorityGet                          
00000541  uxTaskPriorityGetFromISR                   
00001417  uxTaskResetEventItemValue                  
0000b253  vListInitialise                            
0000b283  vListInitialiseItem                        
0000b2cf  vListInsert                                
0000b293  vListInsertEnd                             
0000b639  vPortEnableVFP                             
00009e0d  vPortEndScheduler                          
00009e31  vPortEnterCritical                         
00009e73  vPortExitCritical                          
0000a917  vPortFree                                  
0000a97f  vPortInitialiseBlocks                      
0000b5fd  vPortSVCHandler                            
00009ec5  vPortSetupTimerInterrupt                   
0000b61d  vPortStartFirstTask                        
00009edf  vPortValidateInterruptPriority             
00004279  vQueueDelete                               
000042ab  vQueueSetQueueNumber                       
00000437  vTaskDelay                                 
0000035d  vTaskDelayUntil                            
000008f5  vTaskEndScheduler                          
000010a1  vTaskGetInfo                               
00000fe5  vTaskMissedYield                           
000017d7  vTaskNotifyGiveFromISR                     
00000d23  vTaskPlaceOnEventList                      
00000d5d  vTaskPlaceOnUnorderedEventList             
00001275  vTaskPriorityInherit                       
00000599  vTaskPrioritySet                           
000007f7  vTaskResume                                
0000100d  vTaskSetTaskNumber                         
00000f15  vTaskSetTimeOutState                       
00000889  vTaskStartScheduler                        
000006cd  vTaskSuspend                               
00000911  vTaskSuspendAll                            
00000c9d  vTaskSwitchContext                         
2000ca00  xBinarySemaphore                           
2000ca04  xMutexColaTempLuz                          
2000ca08  xMutexTemperatura                          
0000a979  xPortGetFreeHeapSize                       
0000b59d  xPortPendSVHandler                         
00009d79  xPortStartScheduler                        
00009e9f  xPortSysTickHandler                        
00003ad7  xQueueCreateCountingSemaphore              
000039ff  xQueueCreateMutex                          
0000392b  xQueueGenericCreate                        
00003eb7  xQueueGenericReceive                       
00003879  xQueueGenericReset                         
00003b35  xQueueGenericSend                          
00003cc1  xQueueGenericSendFromISR                   
00003dc9  xQueueGiveFromISR                          
00003a2b  xQueueGiveMutexRecursive                   
00004491  xQueueIsQueueEmptyFromISR                  
000044e7  xQueueIsQueueFullFromISR                   
00004149  xQueuePeekFromISR                          
0000406d  xQueueReceiveFromISR                       
00003a7b  xQueueTakeMutexRecursive                   
2000ca0c  xSemaphoreacc                              
2000ca10  xSemaphoreluz                              
2000ca14  xSemaphoretemp                             
00000f43  xTaskCheckForTimeOut                       
00000145  xTaskCreate                                
0000157d  xTaskGenericNotify                         
00001699  xTaskGenericNotifyFromISR                  
0000124f  xTaskGetCurrentTaskHandle                  
00000a27  xTaskGetTickCount                          
00000a37  xTaskGetTickCountFromISR                   
00000b6d  xTaskIncrementTick                         
000018c1  xTaskNotifyStateClear                      
000014cd  xTaskNotifyWait                            
0000133d  xTaskPriorityDisinherit                    
00000dc1  xTaskRemoveFromEventList                   
00000e5d  xTaskRemoveFromUnorderedEventList          
00000929  xTaskResumeAll                             


GLOBAL SYMBOLS: SORTED BY Symbol Address 

address   name                                       
-------   ----                                       
00000000  __TI_static_base__                         
00000000  interruptVectors                           
00000145  xTaskCreate                                
00000200  __STACK_SIZE                               
0000035d  vTaskDelayUntil                            
00000437  vTaskDelay                                 
00000489  eTaskGetState                              
00000511  uxTaskPriorityGet                          
00000541  uxTaskPriorityGetFromISR                   
00000599  vTaskPrioritySet                           
000006cd  vTaskSuspend                               
000007f7  vTaskResume                                
00000889  vTaskStartScheduler                        
000008f5  vTaskEndScheduler                          
00000911  vTaskSuspendAll                            
00000929  xTaskResumeAll                             
00000a27  xTaskGetTickCount                          
00000a37  xTaskGetTickCountFromISR                   
00000a4b  uxTaskGetNumberOfTasks                     
00000a55  pcTaskGetName                              
00000a99  uxTaskGetSystemState                       
00000b6d  xTaskIncrementTick                         
00000c9d  vTaskSwitchContext                         
00000d23  vTaskPlaceOnEventList                      
00000d5d  vTaskPlaceOnUnorderedEventList             
00000dc1  xTaskRemoveFromEventList                   
00000e5d  xTaskRemoveFromUnorderedEventList          
00000f15  vTaskSetTimeOutState                       
00000f43  xTaskCheckForTimeOut                       
00000fe5  vTaskMissedYield                           
00000fed  uxTaskGetTaskNumber                        
0000100d  vTaskSetTaskNumber                         
000010a1  vTaskGetInfo                               
0000124f  xTaskGetCurrentTaskHandle                  
00001275  vTaskPriorityInherit                       
0000133d  xTaskPriorityDisinherit                    
00001417  uxTaskResetEventItemValue                  
00001439  pvTaskIncrementMutexHeldCount              
00001451  ulTaskNotifyTake                           
000014cd  xTaskNotifyWait                            
0000157d  xTaskGenericNotify                         
00001699  xTaskGenericNotifyFromISR                  
000017d7  vTaskNotifyGiveFromISR                     
000018c1  xTaskNotifyStateClear                      
00002201  __TI_printfi                               
00002afb  __mpu_init                                 
00002d61  CS_setExternalClockSourceFrequency         
00002d9d  CS_initClockSignal                         
00002ea1  CS_startHFXT                               
00002ec5  CS_startHFXTWithTimeout                    
00002f89  CS_startLFXT                               
00002fad  CS_startLFXTWithTimeout                    
0000307d  CS_enableClockRequest                      
000030a5  CS_disableClockRequest                     
000030c7  CS_setReferenceOscillatorFrequency         
000030ed  CS_enableDCOExternalResistor               
00003115  CS_setDCOExternalResistorCalibration       
0000318b  CS_disableDCOExternalResistor              
000031a9  CS_setDCOCenteredFrequency                 
000031e1  CS_tuneDCOFrequency                        
00003285  CS_getDCOFrequency                         
00003425  CS_setDCOFrequency                         
000035fd  CS_getBCLK                                 
00003619  CS_getHSMCLK                               
0000363d  CS_getACLK                                 
00003661  CS_getSMCLK                                
00003683  CS_getMCLK                                 
000036a5  CS_enableFaultCounter                      
000036d1  CS_disableFaultCounter                     
000036fd  CS_resetFaultCounter                       
00003749  CS_startFaultCounter                       
00003799  CS_enableInterrupt                         
000037bb  CS_disableInterrupt                        
000037dd  CS_getInterruptStatus                      
000037e3  CS_getEnabledInterruptStatus               
000037fd  CS_clearInterruptFlag                      
0000381f  CS_registerInterrupt                       
00003833  CS_unregisterInterrupt                     
00003879  xQueueGenericReset                         
0000392b  xQueueGenericCreate                        
000039ff  xQueueCreateMutex                          
00003a2b  xQueueGiveMutexRecursive                   
00003a7b  xQueueTakeMutexRecursive                   
00003ad7  xQueueCreateCountingSemaphore              
00003b35  xQueueGenericSend                          
00003cc1  xQueueGenericSendFromISR                   
00003dc9  xQueueGiveFromISR                          
00003eb7  xQueueGenericReceive                       
0000406d  xQueueReceiveFromISR                       
00004149  xQueuePeekFromISR                          
000041f5  uxQueueMessagesWaiting                     
0000421f  uxQueueSpacesAvailable                     
00004253  uxQueueMessagesWaitingFromISR              
00004279  vQueueDelete                               
0000429d  uxQueueGetQueueNumber                      
000042ab  vQueueSetQueueNumber                       
000042bd  ucQueueGetQueueType                        
00004491  xQueueIsQueueEmptyFromISR                  
000044e7  xQueueIsQueueFullFromISR                   
0000451d  main                                       
00005069  pow                                        
00005069  powl                                       
00005b7d  ADC14_enableModule                         
00005b85  ADC14_disableModule                        
00005b9b  ADC14_enableSampleTimer                    
00005bc5  ADC14_disableSampleTimer                   
00005bdb  ADC14_initModule                           
00005c21  ADC14_setResolution                        
00005c3b  ADC14_getResolution                        
00005c45  ADC14_setSampleHoldTrigger                 
00005c87  ADC14_setSampleHoldTime                    
00005cb1  ADC14_configureMultiSequenceMode           
00005d47  ADC14_configureSingleSampleMode            
00005d9d  ADC14_enableConversion                     
00005dbd  ADC14_toggleConversionTrigger              
00005ddf  ADC14_disableConversion                    
00005deb  ADC14_isBusy                               
00005e09  ADC14_configureConversionMemory            
00005eb1  ADC14_enableComparatorWindow               
00005f41  ADC14_disableComparatorWindow              
00005f9f  ADC14_setComparatorWindowValue             
00006025  ADC14_setResultFormat                      
0000604f  ADC14_getResult                            
00006069  ADC14_getMultiSequenceResult               
000060d5  ADC14_getResultArray                       
00006149  ADC14_enableReferenceBurst                 
0000615f  ADC14_disableReferenceBurst                
00006175  ADC14_setPowerMode                         
000061b7  ADC14_enableInterrupt                      
000061e3  ADC14_disableInterrupt                     
0000620f  ADC14_getInterruptStatus                   
00006239  ADC14_getEnabledInterruptStatus            
00006269  ADC14_clearInterruptFlag                   
00006299  ADC14_registerInterrupt                    
000062ad  ADC14_unregisterInterrupt                  
00006325  SPI_initMaster                             
000063eb  SPI_selectFourPinFunctionality             
00006411  SPI_changeMasterClock                      
00006439  SPI_initSlave                              
000064b7  SPI_changeClockPhasePolarity               
000064e7  SPI_transmitData                           
0000650d  SPI_receiveData                            
00006529  SPI_enableModule                           
00006545  SPI_disableModule                          
00006561  SPI_getReceiveBufferAddressForDMA          
0000657d  SPI_getTransmitBufferAddressForDMA         
000065a9  SPI_isBusy                                 
000065c5  SPI_enableInterrupt                        
000065eb  SPI_disableInterrupt                       
00006611  SPI_getInterruptStatus                     
00006639  SPI_getEnabledInterruptStatus              
00006669  SPI_clearInterruptFlag                     
0000668f  SPI_registerInterrupt                      
0000674d  SPI_unregisterInterrupt                    
000067f9  EUSCI_B_SPI_select4PinFunctionality        
00006819  EUSCI_B_SPI_masterChangeClock              
0000684b  EUSCI_B_SPI_slaveInit                      
00006895  EUSCI_B_SPI_changeClockPhasePolarity       
000068d7  EUSCI_B_SPI_transmitData                   
000068ed  EUSCI_B_SPI_receiveData                    
000068fd  EUSCI_B_SPI_enableInterrupt                
00006917  EUSCI_B_SPI_disableInterrupt               
00006931  EUSCI_B_SPI_getInterruptStatus             
00006949  EUSCI_B_SPI_clearInterruptFlag             
00006963  EUSCI_B_SPI_enable                         
00006979  EUSCI_B_SPI_disable                        
0000698f  EUSCI_B_SPI_getReceiveBufferAddressForDMA  
0000699d  EUSCI_B_SPI_getTransmitBufferAddressForDMA 
000069ab  EUSCI_B_SPI_isBusy                         
000069c3  EUSCI_A_SPI_select4PinFunctionality        
000069e3  EUSCI_A_SPI_masterChangeClock              
00006a19  EUSCI_A_SPI_slaveInit                      
00006a63  EUSCI_A_SPI_changeClockPhasePolarity       
00006aa5  EUSCI_A_SPI_transmitData                   
00006abb  EUSCI_A_SPI_receiveData                    
00006acb  EUSCI_A_SPI_enableInterrupt                
00006ae5  EUSCI_A_SPI_disableInterrupt               
00006aff  EUSCI_A_SPI_getInterruptStatus             
00006b17  EUSCI_A_SPI_clearInterruptFlag             
00006b31  EUSCI_A_SPI_enable                         
00006b47  EUSCI_A_SPI_disable                        
00006b5d  EUSCI_A_SPI_getReceiveBufferAddressForDMA  
00006b6b  EUSCI_A_SPI_getTransmitBufferAddressForDMA 
00006b79  EUSCI_A_SPI_isBusy                         
00006b99  I2C_initMaster                             
00006bfb  I2C_initSlave                              
00006c35  I2C_enableModule                           
00006c4b  I2C_disableModule                          
00006c61  I2C_setSlaveAddress                        
00006c75  I2C_setMode                                
00006c91  I2C_masterReceiveSingleByte                
00006cc5  I2C_slavePutData                           
00006cdb  I2C_slaveGetData                           
00006cef  I2C_isBusBusy                              
00006d01  I2C_masterSendSingleByte                   
00006d67  I2C_masterSendSingleByteWithTimeout        
00006df3  I2C_masterSendMultiByteStart               
00006e41  I2C_masterSendMultiByteStartWithTimeout    
00006e9d  I2C_masterSendMultiByteNext                
00006ec9  I2C_masterSendMultiByteNextWithTimeout     
00006f07  I2C_masterSendMultiByteFinish              
00006f55  I2C_masterSendMultiByteFinishWithTimeout   
00006fc1  I2C_masterSendMultiByteStop                
00006feb  I2C_masterSendMultiByteStopWithTimeout     
00007027  I2C_masterReceiveStart                     
00007041  I2C_masterReceiveMultiByteNext             
00007059  I2C_masterReceiveMultiByteFinish           
00007097  I2C_masterReceiveMultiByteFinishWithTimeout
000070f5  I2C_masterReceiveMultiByteStop             
00007109  I2C_masterReceiveSingle                    
00007133  I2C_getReceiveBufferAddressForDMA          
00007141  I2C_getTransmitBufferAddressForDMA         
0000714f  I2C_masterIsStopSent                       
00007161  I2C_masterIsStartSent                      
00007179  I2C_masterSendStart                        
0000718d  I2C_enableMultiMasterMode                  
000071ad  I2C_disableMultiMasterMode                 
000071cd  I2C_enableInterrupt                        
000071e3  I2C_disableInterrupt                       
000071f9  I2C_clearInterruptFlag                     
0000720f  I2C_getInterruptStatus                     
00007227  I2C_getEnabledInterruptStatus              
00007237  I2C_getMode                                
0000724d  I2C_registerInterrupt                      
000072b3  I2C_unregisterInterrupt                    
0000730f  I2C_slaveSendNAK                           
00007341  Crystalfontz128x128_Init                   
00007455  Crystalfontz128x128_SetDrawFrame           
00007583  Crystalfontz128x128_SetOrientation         
000079f9  Graphics_getStringWidth                    
00007af3  Graphics_drawString                        
00007f71  Graphics_getStringBaseline                 
00007f81  Graphics_drawStringCentered                
00007fc9  Graphics_getStringHeight                   
00007fd9  Graphics_getStringMaxWidth                 
00007fe9  I2C_init                                   
00008005  I2C_write                                  
000080d7  I2C_read                                   
000081f3  I2C_readBurst                              
00008329  I2C_write16                                
000083dd  I2C_read16                                 
000084b1  EUSCIB1_IRQHandler                         
000085a1  Graphics_drawLineH                         
0000863d  Graphics_drawLineV                         
000088bd  Graphics_drawLine                          
00008a31  GPIO_setAsOutputPin                        
00008a6b  GPIO_setAsInputPin                         
00008ab1  GPIO_setAsPeripheralModuleFunctionOutputPin
00008b35  GPIO_setAsPeripheralModuleFunctionInputPin 
00008bb9  GPIO_setOutputHighOnPin                    
00008bdb  GPIO_setOutputLowOnPin                     
00008bfd  GPIO_toggleOutputOnPin                     
00008c1f  GPIO_setAsInputPinWithPullDownResistor     
00008c71  GPIO_setAsInputPinWithPullUpResistor       
00008cc3  GPIO_getInputPinValue                      
00008cf1  GPIO_enableInterrupt                       
00008d13  GPIO_disableInterrupt                      
00008d35  GPIO_getInterruptStatus                    
00008d53  GPIO_clearInterruptFlag                    
00008d75  GPIO_interruptEdgeSelect                   
00008dab  GPIO_getEnabledInterruptStatus             
00008e27  GPIO_setDriveStrengthHigh                  
00008e49  GPIO_setDriveStrengthLow                   
00008e6b  GPIO_registerInterrupt                     
00008e8b  GPIO_unregisterInterrupt                   
00008eb1  TMP006_init                                
00008ef5  TMP006_readAmbientTemperature              
00008f1d  TMP006_readObjectTemperature               
000092ef  Interrupt_enableMaster                     
000092ff  Interrupt_disableMaster                    
0000930f  Interrupt_registerInterrupt                
00009361  Interrupt_unregisterInterrupt              
00009375  Interrupt_setPriorityGrouping              
0000938f  Interrupt_getPriorityGrouping              
000093c7  Interrupt_setPriority                      
00009417  Interrupt_getPriority                      
0000943d  Interrupt_enableInterrupt                  
000094af  Interrupt_disableInterrupt                 
00009521  Interrupt_isEnabled                        
000095ad  Interrupt_pendInterrupt                    
0000961d  Interrupt_unpendInterrupt                  
0000966b  Interrupt_setPriorityMask                  
0000967b  Interrupt_getPriorityMask                  
00009685  Interrupt_setVectorTableAddress            
00009695  Interrupt_getVectorTableAddress            
0000969b  Interrupt_enableSleepOnIsrExit             
000096ad  Interrupt_disableSleepOnIsrExit            
000096dd  SystemCoreClockUpdate                      
00009951  SystemInit                                 
00009a05  init_Accel                                 
00009a0d  Accel_read                                 
00009ced  pxPortInitialiseStack                      
00009d79  xPortStartScheduler                        
00009e0d  vPortEndScheduler                          
00009e31  vPortEnterCritical                         
00009e73  vPortExitCritical                          
00009e9f  xPortSysTickHandler                        
00009ec5  vPortSetupTimerInterrupt                   
00009edf  vPortValidateInterruptPriority             
00009f75  Graphics_initContext                       
00009fbf  Graphics_setClipRegion                     
0000a089  Graphics_setBackgroundColor                
0000a0a3  Graphics_setBackgroundColorTranslated      
0000a0b9  Graphics_setFont                           
0000a0d3  Graphics_getFontBaseline                   
0000a0e1  Graphics_setForegroundColor                
0000a0f7  Graphics_setForegroundColorTranslated      
0000a109  Graphics_getFontHeight                     
0000a117  Graphics_getFontMaxWidth                   
0000a125  Graphics_getDisplayWidth                   
0000a135  Graphics_getDisplayHeight                  
0000a145  Graphics_getHeightOfDisplay                
0000a153  Graphics_flushBuffer                       
0000a161  Graphics_clearDisplay                      
0000a173  Graphics_drawPixel                         
0000a1cd  Graphics_getWidthOfDisplay                 
0000a1db  _system_post_cinit                         
0000a1dd  SysCtl_getTLVInfo                          
0000a253  SysCtl_getSRAMSize                         
0000a259  SysCtl_getFlashSize                        
0000a25f  SysCtl_disableNMISource                    
0000a273  SysCtl_enableNMISource                     
0000a287  SysCtl_getNMISourceStatus                  
0000a28d  SysCtl_enableSRAMBank                      
0000a2a9  SysCtl_disableSRAMBank                     
0000a311  SysCtl_enableSRAMBankRetention             
0000a32d  SysCtl_disableSRAMBankRetention            
0000a349  SysCtl_rebootDevice                        
0000a353  SysCtl_enablePeripheralAtCPUHalt           
0000a367  SysCtl_disablePeripheralAtCPUHalt          
0000a37b  SysCtl_setWDTTimeoutResetType              
0000a39f  SysCtl_setWDTPasswordViolationResetType    
0000a3c3  SysCtl_enableGlitchFilter                  
0000a3cf  SysCtl_disableGlitchFilter                 
0000a3db  SysCtl_getTempCalibrationConstant          
0000a421  exp2                                       
0000a421  exp2l                                      
0000a61d  __aeabi_uldivmod                           
0000a811  pvPortMalloc                               
0000a917  vPortFree                                  
0000a979  xPortGetFreeHeapSize                       
0000a97f  vPortInitialiseBlocks                      
0000a9dd  __aeabi_dsub                               
0000a9e7  __aeabi_dadd                               
0000ab95  init_ADC                                   
0000ac6d  ADC_read                                   
0000ac93  ADC14_IRQHandler                           
0000ad0d  sqrt                                       
0000ad0d  sqrtl                                      
0000ae7d  sensorOpt3001Init                          
0000ae89  sensorOpt3001Enable                        
0000aeb5  sensorOpt3001Read                          
0000af19  sensorOpt3001Test                          
0000af7b  sensorOpt3001Convert                       
0000afe9  __aeabi_ddiv                               
0000b11f  Graphics_drawPixelOnDisplay                
0000b149  Graphics_drawMultiplePixelsOnDisplay       
0000b18d  Graphics_drawHorizontalLineOnDisplay       
0000b1c1  Graphics_drawVerticalLineOnDisplay         
0000b1f5  Graphics_fillRectangleOnDisplay            
0000b213  Graphics_translateColorOnDisplay           
0000b229  Graphics_flushOnDisplay                    
0000b23b  Graphics_clearDisplayOnDisplay             
0000b253  vListInitialise                            
0000b283  vListInitialiseItem                        
0000b293  vListInsertEnd                             
0000b2cf  vListInsert                                
0000b335  uxListRemove                               
0000b37d  __aeabi_dmul                               
0000b479  ldexp                                      
0000b479  ldexpl                                     
0000b479  scalbn                                     
0000b479  scalbnl                                    
0000b585  ulPortGetIPSR                              
0000b59d  xPortPendSVHandler                         
0000b5fd  vPortSVCHandler                            
0000b61d  vPortStartFirstTask                        
0000b639  vPortEnableVFP                             
0000b649  HAL_LCD_PortInit                           
0000b679  HAL_LCD_SpiInit                            
0000b6af  HAL_LCD_writeCommand                       
0000b6d7  HAL_LCD_writeData                          
0000b705  __aeabi_memcpy                             
0000b705  __aeabi_memcpy4                            
0000b705  __aeabi_memcpy8                            
0000b705  memcpy                                     
0000b7a1  __aeabi_cdcmpeq                            
0000b7a1  __aeabi_cdcmple                            
0000b827  __aeabi_cdrcmple                           
0000b8ad  __aeabi_memclr                             
0000b8ad  __aeabi_memclr4                            
0000b8ad  __aeabi_memclr8                            
0000b8af  __aeabi_memset                             
0000b8af  __aeabi_memset4                            
0000b8af  __aeabi_memset8                            
0000b8b5  memset                                     
0000b929  __TI_auto_init                             
0000b999  __aeabi_d2f                                
0000ba07  __TI_decompress_lzss                       
0000ba71  frexp                                      
0000ba71  frexpl                                     
0000bad5  sprintf                                    
0000bb35  _c_int00                                   
0000bb89  C$$EXIT                                    
0000bb8d  abort                                      
0000bb95  exit                                       
0000bbdd  ltoa                                       
0000bc31  atoi                                       
0000bc7d  copy_in                                    
0000bcc9  __aeabi_d2iz                               
0000bd11  CPU_cpsid                                  
0000bd1d  CPU_primask                                
0000bd27  CPU_cpsie                                  
0000bd33  CPU_wfi                                    
0000bd37  CPU_basepriSet                             
0000bd45  CPU_basepriGet                             
0000bd4f  __aeabi_f2d                                
0000bd87  strncpy                                    
0000bdbd  __aeabi_i2d                                
0000be0d  __aeabi_ui2d                               
0000be2d  memccpy                                    
0000be49  _args_main                                 
0000be61  strchr                                     
0000be79  _register_unlock                           
0000be7f  _register_lock                             
0000be87  _nop                                       
0000be8d  copysign                                   
0000be8d  copysignl                                  
0000bea1  strlen                                     
0000beb5  __TI_decompress_none                       
0000bec3  __TI_zero_init                             
0000becf  _system_pre_init                           
0000d1d0  _ctypes_                                   
0000d2d4  g_sFontFixed6x8                            
0000d4a0  g_sCrystalfontz128x128                     
0000d54c  ulMaxSyscallInterruptPriority              
0000d5d0  __TI_Handler_Table_Base                    
0000d5dc  __TI_Handler_Table_Limit                   
0000d5f0  __TI_CINIT_Base                            
0000d608  __TI_CINIT_Limit                           
20000000  g_pfnRAMVectors                            
2000c948  g_sContext                                 
2000c9d4  resultsBuffer                              
2000c9e0  Cola_Acele                                 
2000c9e4  Cola_Medias                                
2000c9e8  Cola_TempLuz                               
2000c9ec  Mediaaccx                                  
2000c9f0  Mediaaccy                                  
2000c9f4  Mediaaccz                                  
2000c9f8  g_ui32ByteCount                            
2000c9fc  pData                                      
2000ca00  xBinarySemaphore                           
2000ca04  xMutexColaTempLuz                          
2000ca08  xMutexTemperatura                          
2000ca0c  xSemaphoreacc                              
2000ca10  xSemaphoreluz                              
2000ca14  xSemaphoretemp                             
2000ca18  Lcd_ScreenHeigth                           
2000ca1a  Lcd_ScreenWidth                            
2000ca1c  Lcd_TouchTrim                              
2000ca1e  Lcd_FlagRead                               
2000ca1f  Lcd_FontSolid                              
2000ca20  Lcd_Orientation                            
2000ca21  Lcd_PenSolid                               
2000ca22  ui8DummyRead                               
2000ca23  ui8Status                                  
2000ca58  pxCurrentTCB                               
2000ca88  MediaLuz                                   
2000ca8c  MediaTemp1m                                
2000ca90  MediaTemp2m                                
2000ca94  DifTemp2Temp1                              
2000ca98  sumatm1                                    
2000ca9c  sumatm2                                    
2000caa0  TemperaturaG                               
2000cab8  aux                                        
2000cac5  rotulo1                                    
2000cad2  rotulo2                                    
2000cadf  burstMode                                  
2000cae0  __TI_cleanup_ptr                           
2000cae4  __TI_dtors_ptr                             
2000cae8  __TI_enable_exit_profile_output            
2000caf8  _lock                                      
2000cafc  _unlock                                    
2000cb10  errno                                      
2000cb14  main_func_sp                               
2000cb18  SystemCoreClock                            
2000fe00  __stack                                    
20010000  __STACK_END                                
4000480c  WDTCTL_SYM                                 
ffffffff  __TI_pprof_out_hndl                        
ffffffff  __TI_prof_data_size                        
ffffffff  __TI_prof_data_start                       
ffffffff  __binit__                                  
ffffffff  __c_args__                                 
ffffffff  binit                                      
UNDEFED   SHT$$INIT_ARRAY$$Base                      
UNDEFED   SHT$$INIT_ARRAY$$Limit                     

[497 symbols]
